:020000040800F2
:1000000068090020C501000825440008A73E000833
:1000100000000000000000000000000000000000E0
:100020000000000000000000000000000948000877
:100030000000000000000000274400080B480008F2
:10004000D701000800000000D7010008D701000810
:10005000D7010008D7010008D7010008D701000820
:1000600000000000D7010008D7010008D7010008F0
:10007000D7010008D7010008D701000800000000E0
:10008000D7010008D701000800000000D7010008D0
:10009000D7010008D7010008D7010008D7010008E0
:1000A000D7010008D7010008D7010008495000080F
:1000B000D701000800F002F800F058F80CA030C892
:1000C000083824182D18A246671EAB4654465D46D4
:1000D000AC4201D100F04AF87E460F3E0FCCB64646
:1000E0000126334200D0FB1AA246AB4633431847E1
:1000F0006862000088620000103A02D378C878C1B4
:10010000FAD8520701D330C830C101D504680C6059
:10011000704700000023002400250026103A01D378
:1001200078C1FBD8520700D330C100D50B607047AF
:1001300010B5662902D105F0D3FF10BD642902D1A4
:1001400000F01AF910BD782902D100F04BF910BD6A
:10015000002010BD1FB501F041FD0400002000216A
:1001600005F06EFEE0601FBD10B510BD02F012F983
:100170001146FFF7EFFF05F09BF902F02AF903B4EF
:10018000FFF7F2FF03BC02F0A1F9000070B50546CD
:100190000C46164602E00FCC0FC5103E102EFAD2C8
:1001A000082E02D303CC03C5083E042E07D301CC8E
:1001B00001C5361F03E021782970641C6D1C761E72
:1001C000F9D270BD0748804707480047FEE7FEE7C1
:1001D000FEE7FEE7FEE7FEE704480549054A064B51
:1001E0007047000081480008B5000008680300203F
:1001F000680900206805002068050020FEB5054656
:1002000010460C46184373D0AE468C460020AD1AFB
:1002100001469C4167D36646002701243D46B61A35
:100220009D4102D313463A462124654676462F0463
:10023000360C3E432D0CB61A9D4104D3150C1B04FD
:100240002B4312041034654676462F06360A3E4389
:100250002D0AB61A9D4104D3150E1B022B43120220
:100260000834654676462F0736093E432D09B61AEF
:100270009D4104D3150F1B012B431201241D65461C
:100280007646AF07B6083E43AD08B61A9D4104D383
:10029000950F9B002B439200A41C65467646EF0702
:1002A00076083E436D08B61A9D411AD392185B41F9
:1002B000641C16E00018764665464941B71A9D4110
:1002C0000191009009D36046B11A98418E46844648
:1002D000009801990025401C6941DD0752082A4316
:1002E0005B08641EE6D57246634603B0F0BDFFE7C7
:1002F00000200146C046C0462A462346F5E70000D6
:100300000FB41CB5074B06AA7B44694600900598BC
:1003100001F06FFB0020694601F07EFB1CBC08BCAD
:1003200004B018470D17000070B5044685690068D1
:10033000C10601D5302600E02026C00707D070BDD9
:1003400062683046A1689047206A401C20626D1E9A
:10035000F6D570BD70B5044685690078C00707D131
:1003600070BD6268A16820209047206A401C20620E
:100370006D1EF6D570BD0000F7B500257529106813
:10038000009914A611D0C046C046002802DA4042A7
:1003900011A608E0009909688A0701D50FA602E0B6
:1003A000490704D50EA6012501E0C046C046009FBE
:1003B0000024243704E001F034FB30313955641C4B
:1003C0000028F8D12B4632462146009801F0A8F8C3
:1003D000FEBD0000000000002D0000002B0000000A
:1003E0002000000070B504460D4621461068C04646
:1003F000C0462188090502D50F4A7A4402E00E4A18
:100400007A440E3223460021243305E00607000912
:10041000360F965D5E54491C0028F7D120780023E2
:10042000000705D5702D03D0002901D00223113219
:10043000204601F075F870BDCA5D0000F3B50446B2
:10044000002081B020622046E168884700287DD0E6
:10045000252802D06268A16883E0454F00257F44CB
:100460002046E16888472028064608DB312E06D260
:10047000B81920380078002801D00543F0E7A80714
:1004800001D5042085430020E0610746A0612A2EA3
:100490000AD0304604F030FE002827D0B8000019FA
:1004A000303E0090866119E00298BA00121902C825
:1004B000916102902046E1688847012F064617D1D6
:1004C000E06900281FDA202085431CE000980A21FB
:1004D0008069484300998019303888612046E16876
:1004E0008847064604F008FE0028EFD1012F0AD005
:1004F0002E2E08D12046E168884706462020054375
:100500007F1C022FC3DBA069002803DA4042A061F0
:1005100001200543E80701D010208543002E24D098
:1005200030464138192803D80120C002054320363F
:10053000204625603146029A1546FFF7F9FD00284E
:100540000CD0012807D0ED1DE80800E00DE0C00048
:100550000830029077E72D1D029574E762683046F7
:10056000A1689047206A401C6CE7206AFEBD00002D
:100570008E5D000030B5441C03E00178401C00296A
:100580000DD08107F9D10B4BDD0104C8D11A91437D
:100590002940FAD0001B0A0603D0C01E30BD001B44
:1005A00030BD0A0401D0801E30BD0902FCD0401EBF
:1005B00030BD00000101010101E004C0091F042950
:1005C000FBD28B0701D50280801CC90700D00270C6
:1005D000704700290BD0C30702D00270401C491E8F
:1005E000022904D3830702D50280801C891EE3E719
:1005F0000022EEE70022DFE7002203098B422CD322
:10060000030A8B4211D300239C464EE003460B4362
:100610003CD4002243088B4231D303098B421CD3C4
:10062000030A8B4201D394463FE0C3098B4201D3B6
:10063000CB01C01A524183098B4201D38B01C01AEE
:10064000524143098B4201D34B01C01A5241030965
:100650008B4201D30B01C01A5241C3088B4201D314
:10066000CB00C01A524183088B4201D38B00C01AC1
:10067000524143088B4201D34B00C01A5241411AE8
:1006800000D201465241104670475DE0CA0F00D0CB
:100690004942031000D34042534000229C460309C4
:1006A0008B422DD3030A8B4212D3FC22890112BA4A
:1006B000030A8B420CD3890192118B4208D3890122
:1006C00092118B4204D389013AD0921100E089093A
:1006D000C3098B4201D3CB01C01A524183098B421B
:1006E00001D38B01C01A524143098B4201D34B0104
:1006F000C01A524103098B4201D30B01C01A524167
:10070000C3088B4201D3CB00C01A524183088B42ED
:1007100001D38B00C01A5241D9D243088B4201D376
:100720004B00C01A5241411A00D201466346524161
:100730005B10104601D34042002B00D54942704760
:1007400063465B1000D3404201B50020C046C0465E
:1007500002BD7047704770470246C80FC00781430B
:100760004B0030B54B405B009B0D20D01923DB06BE
:10077000C91801231B05994220DB0324A407042583
:100780001346AB400BD3002B04D1EB0613409B0068
:10079000E34204D401246407002312195941FF23C2
:1007A0001B0599420BD2C9000143500F09E0CB024F
:1007B00004D501430803024305D0054830BDFF219D
:1007C000C905084330BD084607210905884330BDE7
:1007D0000000C07FF0B50C46871A9C410D46861A72
:1007E0009D4103D2C01BA141D21963410D0D1F0DC4
:1007F000C94EEC1BAE435CD07F057F0D0026002F59
:1008000051D02D05AC46A943DD020123ED0A1B059D
:100810001D4320231B1B24D41746E7403818714181
:100820002F46E740CC199D402818314661410C0DF8
:1008300027D161449A4013D50023401C59415200EE
:100840000ED14008400001224B005205D34207D38D
:1008500005204007C14201D5B04900E0B04930460B
:10086000F0BD6B00002A00D001229A181F23203C03
:100870001B1B01D5002302E0E540281871410C0D37
:10088000D7D0012424050919C407CD074008490819
:10089000E40F28436144002CD5D00024401C614162
:1008A0009A40D0D1CDE76A05520DD9D1C90FC907F9
:1008B000D5E79C4D4E00002801D0012400E0002423
:1008C00034195F00002A01D0012600E00026BE197D
:1008D000954FAC420CD8AE420AD8B44206D001259E
:1008E0006D05EC42BCD010461946F0BD9942FCD0D3
:1008F00000203946F0BDF0B51FB40C460F46811AF2
:100900009F412546861A9D4106D20125ED076F407D
:10091000401ABC4152187B41210D1E0D8D1BAC4667
:100920007D4D8D437ED075056D0D7CD00D05AE4699
:10093000AC431B031B0B794D52429D41202366465D
:100940009B1B14D31746F7403818002600907441BB
:1009500060462F460741E41900989D4028186641DB
:1009600016D4714671189A4025D5012320E09318BA
:100970002A466A415200002B00D0521C1E23203E02
:100980009B1B002B61DD3541EE1728186641E8D529
:10099000001876415B1C9A4000D3401C4B05F318AD
:1009A0001524E34010D3002B52D071467118D30F99
:1009B000C01802D3491C05B0F0BD0123DB079A42E1
:1009C000F9D140084000F6E701225205B21801D1E2
:1009D000002853D00123CC0ADB029943891E002A48
:1009E00008D1020C03D0020C0004103902E00246C8
:1009F000002020390023550B05D112020823550B86
:100A000001D152010D23550C01D112011B1DD50C32
:100A100001D192009B1C150D01D152005B1C2025B9
:100A2000EE1A01E02CE022E00546F540154398401F
:100A3000CA1AE10769181305C918002ABBDA03208E
:100A400040070818C10FC9070FE071466118B2E7E7
:100A5000F10740080843711071444A000CD001238B
:100A60005B059A42A7D2C90FC9070020A3E7490531
:100A7000490D26D1002001E00028F4D100219AE799
:100A8000284D6600002801D0012100E000217118E6
:100A90005F00002A01D0012600E00026BE19224F87
:100AA000A94210D8AE420ED8B14208D001256D053A
:100AB000E94206D01946A802414010467BE79C4215
:100AC00001D0214677E70020394674E710B50C467F
:100AD0005C4005D50124E4076340FFF70CFF10BD1F
:100AE000FFF778FE10BD30B40C465C4004D50124FD
:100AF000E407634030BC6DE630BCFCE670B5012411
:100B0000E40761400D465D4002D4FFF763FE70BD0F
:100B10006340FFF7F0FE70BDFF0700000000F0FF2C
:100B20000000F07F0000E0FF0000F87FF0B5F94D15
:100B30000C091E092C402E402F468BB0A7437DD0B8
:100B4000B543FCD0002E7AD0002CFCD00D465D4081
:100B5000ED0F2543AC1BFF25AD0464190894C502B5
:100B6000440DC9022143500DDC0204430120C0079B
:100B700001430443D2020191200C110C00958C46D4
:100B8000010423468B430A9161460904E24D8A43DE
:100B90000991010A7D4449198039097805464D4378
:100BA00001266D18F605751B6943C90C640B891C79
:100BB0004C436418B5012C1B250C2E04B4434C4344
:100BC0004D43210C691889090591009DE90701D061
:100BD0000121C90704912C4601996708CD072F43CD
:100BE0004C08059DE10B4D432D0C29466646754387
:100BF00002950D4645432E46029D7D1BB44100954E
:100C00000D465D4301942C0C2F040D465543AE4612
:100C10002D0C3D43029503947546049C2D04641BE2
:100C2000049406D2029C039D641C00267541039522
:100C3000029401AC70CC009F7D1B01E03EE162E1BB
:100C4000B44109040095079101940599A4086143F2
:100C5000090C0C464443650BE7040C466646744396
:100C6000A646640B3C43039502947446049DE40439
:100C70002C1B049406D2029C039D641C0026754123
:100C80000395029401AC70CC009F7D1BB44101948C
:100C90000C465C430095650FE7000C465443A6469E
:100CA000640F3C43039502947446049DE4002C1B9E
:100CB000049406D2029C039D641C00267541039592
:100CC000029401AC70CC009F7D1BB441AE09AF060D
:100CD000049DC900AD092F43049DA406AD060495EB
:100CE000079D344369180791059DE10B4D432D0C79
:100CF00029466646754302950D4645432E46029D9C
:100D00007D1BB44100950D465D4301942C0C2F04CE
:100D10000D465543AE462D0C3D4302950394754652
:100D2000049C2D04641B049406D2029C039D641C45
:100D3000002675410395029401AC70CC009F7D1B89
:100D4000B44101948C050694079C890A61180095AA
:100D50000791019C0599A4086143090C0D46454380
:100D6000680BEF040D46644665436C0B3C43049FDF
:100D7000ED047D1BAC4602D20025641C6841009E38
:100D8000019D371B85410846584301950C46460F87
:100D9000C5005443600F28436546E4002C1B02D273
:100DA0000025401C6E41019D3F1AB5412846BD09F2
:100DB000800628438446A009BF064E020699A40671
:100DC00076180743079D002068410A990790194348
:100DD0000020099B00906046FF1913434041E20F39
:100DE00064003A43A4460446D71A8C41A04203D972
:100DF0000120009020463A46C70F941840416246B1
:100E0000D20F2243644664000494009CBE466400F2
:100E1000D71AA446044602978C417746002F01D189
:100E2000A04204D96046401C8446029A2046C40F62
:100E3000A64694184041049A0546D20F22436446C0
:100E40006400D31A8D417146002901D1A84202D90C
:100E500028461A46641C10430122002800D016437D
:100E600061020020079B891904465C410223002C83
:100E700002DB491813466441089DCE0A2D145D1902
:100E80004B056705E10A2C050D1908993E43C90772
:100E90006940002B08D0934006D30022761C5141B4
:100EA000002B01D1760876001C4A002D43DB154249
:100EB00041D0AA433FD030460BB0F0BD06180D46D6
:100EC0004D41174C7642AC411AD395181C465C41F3
:100ED000134A6D42A24113D3012252054C00D44261
:100EE0000AD15C00D4420BD04B4002D59202114390
:100EF000E2E749004908DFE75940C90FC90718E090
:100F000000200849D8E7054801420DD10342F7D037
:100F1000F2E700000000FF07695600000000F07FC4
:100F20000000E0FF0000F87F114859400143C01263
:100F300041400020C0E70123089A9B069A4205DC45
:100F4000032252078918C90FC907B5E705225207BE
:100F50008918074A1143D2125140ADE770B51546C2
:100F60001C4602460B4628462146FFF7DFFD70BDB2
:100F7000FFFFFF7F30B50346CA02400D1043164DF8
:100F8000164C0A1502D02043002A06DBAA1A002AB2
:100F900012DDD040FF2A0BDC30BD5205520D01D1CD
:100FA00040004008AA1A07D4D0404042FF2A01DD81
:100FB000002030BD0028FCDD4A00002B01D00120BC
:100FC00000E00020101801225205D042F0D8C817C6
:100FD000C043604030BD00001E04000000000080DF
:100FE0000346CA02400D10B510430A1504D001246F
:100FF000E4072043002A05DB0A4CA21A04D4D0409F
:10100000FF2A00DD002010BD4A00002B01D0012086
:1010100000E00020101801225205D042F2D8C81773
:10102000C04310BD1E0400001F22030C02D10F227A
:10103000000402D0030E03D004E0002001467047F4
:101040000002083A030F01D10001121F830F01D1E2
:101050008000921E002801DB4000521E120551182C
:101060004205C012411810467047C10FC90700D091
:101070004042012292071143D6E701218907D3E7B5
:10108000F0B58B4C0F09254689B0BD437BD01D09B7
:101090002646AE43FAD00E465E402740F60F3E434A
:1010A000254071D024012142FBD0FF24AD19A404B6
:1010B0002D1B039501252D05DB02DB0AC9022B43FD
:1010C000C90A29431E010901040F130F0501214319
:1010D0001701880B820391432D098C46A90B1E43EF
:1010E0008A039543B30B9A0396433F09BA0B9403C3
:1010F000A74302962E467E430497B6464E19D7194B
:101100000C460196544305977E43371B7646BF1B1A
:101110003601B646BE0B361900967646BC04371922
:10112000009C01D3641C00946400002F01D00126B0
:101130003443029E049F754366467E4304967600C0
:1011400034196E0034190094029C019E1C196643E8
:10115000751BAE46069465464519059C05956C437E
:10116000594375460891691A0191049E01465143FD
:10117000A41B0491611A009C0791E10605D0610946
:101180000122114302E072E06EE06109089D002730
:101190002C0A2D066918049D7C412A0A2D0669181F
:1011A000019D6241AC0DAD026D185441079A910D3D
:1011B000920255196141029A644658435443069B72
:1011C000059A5A43121A131B9A0E9B015B187A4117
:1011D000010B0005C3185141220A200644195A4147
:1011E0009A4200D2491C01204002814203D31523B8
:1011F0000226F64302E014230326F6432020C51AF4
:10120000A9401746AF40DA400A4320460399D84028
:101210000914731819055118039A3843D20751401D
:10122000AC4009D00122944006D30022401C514119
:10123000002C01D1400840001E4A934212D30122E3
:1012400003989206904207DB0520400709181A48C8
:101250000143C012414004E0032040070818C10FB9
:10126000C907002009B0F0BD0020F107FAE7051812
:101270000C464C4111486D42A04115D394181A46B2
:101280005A410E48644290410ED301204A00400565
:10129000824209D35A00824206D35940C90F084AF4
:1012A000C90700201143DDE700200649DAE7000006
:1012B0000000FF07FE070000FFFFFF7F0000E0FFC8
:1012C0000000F07F0000F87F0121C90501234118CB
:1012D00042001B06D3185B0E0AD0C1100722D206AB
:1012E000891840075242D14201D5520089187047EF
:1012F000090208D50146002A03D0C10FC907002002
:10130000704710467047420202D0002002497047E1
:10131000072109050143F4E70000F87FF0B5FF2538
:101320002D04C609C209FF2704462E400137CB0908
:101330003E4348402A402B400746002A6BD0002BF2
:1013400069D0AA4267D0AB4265D0002800DA3246A5
:101350000125ED0529432C4309022002090AD21A6E
:101360004B0C7F24E31A434C000A7C44E35C7D244D
:101370002404121914145B00A218884201D3521CD1
:1013800000E0400049420C465C4324115C43DB0111
:101390006415E318040A5C43C502200D0C4644435F
:1013A0006419250A5D432303EC0C0D4665430003D5
:1013B0000019EB184C42A34201D35B18401CD40522
:1013C0002018002B07D05B00C91804D3401C00294B
:1013D00001D1400840003F2189048A4209D3002AF4
:1013E00008DC1106090F04D0032149074018C00F7B
:1013F000C007F0BD01224100120689187F22520663
:101400009142F6D205214907C84201D59010F0BD9E
:10141000FF20C005F0BD002F00DA32461648AA4270
:1014200007D2AB4205D21902090E17D0F80FC00738
:10143000F0BDFF2563002D06AB42F9D84900A94253
:10144000F6D8AB4201D1A942F2D0A94201D1002184
:1014500001E061004908D0050843F0BD1102090E02
:10146000FBD0FF200243D005F0BD0A4601461046DE
:1014700054E70000134F00000000C07F0102C215B6
:1014800004D00123DB071943002A0ADB9E239A1AA2
:1014900002D40846D0407047FF2241001206914214
:1014A00001D900207047C017C04370471F22030CAA
:1014B00002D10F2200041CD0030E01D10002083A11
:1014C000030F01D10001121F830F01D18000921E72
:1014D000002801DB4000521ED2055118021251189B
:1014E0001922904004D3491C002801D14908490021
:1014F00008467047C10FC90700D040420122920739
:101500001143D3E701218907D0E710B500F06AFB4A
:10151000006810BD10B5044600F064FB046010BD07
:10152000FFB504460D4681B024300090216888063E
:1015300004D51022E0699143216000E00120A84217
:1015400001DD471B00E000270498A1697A191018F3
:10155000081AA0612078C00602D42046FEF7E4FEF7
:10156000002608E003986268A168805D9047206AC1
:10157000401C761C206204988642F3DB2078C0066B
:101580000AD52046FEF7D0FE06E06268A16830204A
:101590009047206A401C206238467F1E0028F4DCF9
:1015A00007E000986268A168405D9047206A401C8F
:1015B000206228466D1E0028F3DC2046FEF7CAFE96
:1015C0002078000602D5022005B0F0BD0120FBE71F
:1015D0007047FFB50C461E468FB003CA08900991AC
:1015E0004F007D0D00D16D1E002108460020C04631
:1015F0000321099A89050840002A03DA820080182D
:1016000040080840800D01280A9002DD0020C043F8
:101610000A90089807430DD0F048F149281848432C
:101620000714189800281DD07542291E1DDD0A9840
:1016300042421BE01898012802D00020302104E02B
:101640000020F24305E02154401CB042FBDB304651
:101650000022189B002121540F998B600A6048607A
:1016600013B0F0BDBD1B6D1CDFE70A9A002900DA3C
:1016700069420BA800F03CFB0BAB07CB03AB07C3E5
:101680000899099800F0A0FB6B4607C30146D548AE
:101690000918002D00910BDDD24903980A9A49429E
:1016A0004018002303A90390684600F0FDFD08E000
:1016B00003990A9A0023081803A90390684600F0CA
:1016C0009DFD6B4607C30004000C03D00020C043FF
:1016D000410800E01046189A002A03D00022009228
:1016E00015461EE0751E05D400F080FA30326255B2
:1016F0006D1EF9D501220843079602D000227F1CF7
:1017000004E02078302801D100227F1E002A0697AD
:1017100087D01EE0112D07DA00F068FA30326255EA
:101720006D1C02460A43F5D1084303D000980028F7
:1017300019D00EE00021681E05E0235C625C635452
:101740002254401E491C8142F7DBA81B401E07950E
:101750000690079A18990020A0540F98079B069AA4
:1017600081600CC07CE711260020189059E7D21D3B
:10177000F0B50D460446D10893B0C90003C90C90DA
:101780000D9103F081FC02460D98C00F01D02D2071
:1017900007E02068810701D52B2002E04007C00F39
:1017A0004001032A0F9001D0072A05DB0346294692
:1017B000204600F059FA0EE12078800601D5E7694D
:1017C00000E006272846652D04D0662814D0672D32
:1017D00069D12DE00020112F009001DB112300E0E2
:1017E0007B1C0CAA03A910A8FFF7F3FE1199002691
:1017F00010987D1C0E9142E001203B460CAAC007C8
:101800000B900120009003A910A8FFF7E2FE119DA4
:1018100012981099002600280E9501D1781C0D18F9
:10182000781B02D446427D1C761EE81B00903AE0ED
:10183000012F00DA01270020112F009001DD112374
:1018400000E03B460CAA03A910A8FFF7C2FE1199BD
:101850003D46109800260E91217809070BD40E9969
:10186000A94200DA0D4603A9012D04DD4A19203AE8
:10187000D27F302A06D0B84201DA011D04DA0121F4
:1018800000910FE06D1EEFE7002802DC86192D1A8B
:1018900003E0411CA94200DD0D46801B401C009066
:1018A0000120C0070B902078000705D40098A842BB
:1018B00002DB0020C043009069460020C8720B98EC
:1018C000012102AF0337C907884225D002201090BA
:1018D0002B2011900B9800280BDA40420B902D2002
:1018E000119006E00B9800F09CF830317F1E0B90B1
:1018F00039701099481E00291090F3DC0B980028CD
:10190000F0D111987F1E38702088000501D5452040
:1019100000E065207F1E387001A8C01BC01D0B9021
:101920000F98002800D0012041190098C01709180D
:101930000B980818A169081A401EA0612078C006FB
:1019400002D42046FEF7F0FC0F98002805D062680C
:10195000A1689047206A401C20622078C00625D5E7
:101960002046FEF7E1FC21E0002E07DB0E98B04296
:1019700004DD03A86268805DA16802E06268A16876
:1019800030209047206A761C401C20620098401E40
:10199000002800900AD100F021F9C068626801684F
:1019A000405CA1689047206A401C206228466D1E5A
:1019B0000028D9DC07E062683878A1687F1C90476E
:1019C000206A401C20620B99481E00290B90F2DC13
:1019D0002046FEF7BFFC032042E6000001FCFFFFAB
:1019E000104D0000E1DFFFFF01694A1C0261087829
:1019F000704700B58FB00291002105910549019310
:101A000079440391114604906846FEF717FD0FB024
:101A100000BD0000E5FFFFFF0A681070521C0A605D
:101A2000704701468008081A02091018020A1018A7
:101A3000020C1018C008820012185200891A01E026
:101A4000401C0A390A29FBD270470000F8B5224C25
:101A50004E00069DA6420AD8A64201D1002806D112
:101A60005E00A64203D8A6420AD1002A08D00D245F
:101A7000240425422CD02946002000F065FCF8BD46
:101A80000C461C430CD4994202D0EFF30080F8BD01
:101A9000904202D0EFF30080F8BDEFF30080F8BD74
:101AA00009242407E5008B4206D0EFF30080A04311
:101AB000591A06D2284304E0101A05D3EFF3008028
:101AC000A04380F30088F8BDEFF30080A043F1E766
:101AD000009500F051FCF8BD0000E0FFF0B53D4B73
:101AE00002460C461C400020002C63D03A4D8B432C
:101AF00066D000296BDB0B0D1D05A94301252D05C3
:101B000029430124FD33E34001D392184941FF33B7
:101B100081339C468B02940D0121234389074C425B
:101B2000920200271B198C105D1A04D42D1B02D4BD
:101B30002B466500491992185B416408F4D15C1A80
:101B400008D40125ED07EE175519744102D42A4631
:101B50002346491C94185B41012292071D46E61B4F
:101B60008D4106D4B61A854103D42B465500344620
:101B70007F1924195B415208802AEFD1234300D0FA
:101B8000022338460A22D04001D3012213438A059A
:101B900010436246890A12058918002B09D00122D8
:101BA000D34002D30022401C5141002B01D14008F8
:101BB0004000F0BD0B03134307D0C90FC907F0BDA8
:101BC0000803104303D1002901DB1046F0BD0020BB
:101BD0002946F0BD0000F07F0000F87F0048704704
:101BE0002403002000487047040300200B4670B512
:101BF000024689078008084319469D08141AA9411E
:101C000025090807054308092C194841250A01063A
:101C10000D43010A2C194141200C0D0428430D0CE1
:101C200000194D41002140194D41C0086907084382
:101C3000E908840F8D002543840024184D412419A0
:101C40006D41121BAB4107E00925ED432C115219E0
:101C500063410024401C61411C460A250026551B97
:101C6000B441F1D270BD0000F8B51F46044601230F
:101C70000068DB02032601461840072A05DB00281E
:101C800001D017A506E017A504E0002801D016A58D
:101C900000E016A5102081432160A069C01E002F1E
:101CA000A06101D0401EA0612046FEF73DFB002F41
:101CB00009D038466268A1689047206A401C2062BB
:101CC000C01C206206E0206AFAE762682878A168F2
:101CD0006D1C9047761EF8D22046FEF73BFBF8BD00
:101CE0004E414E006E616E00494E4600696E6600C0
:101CF000F7B516468AB0334878446C4603467C33C1
:101D0000C06F5A689B680DC42E487844763003AC87
:101D10000DC80DC43720C001081837211B30FEF74D
:101D200075FC05460C46803D1B3C02D564420120F3
:101D300000E000200027099010E0E0070CD00C2004
:101D400020497843794432464C394118684601238A
:101D500000F054FA6B4607C364107F1C002CECD1D2
:101D6000184F7F442E3F16E0E80712D02001C0191B
:101D70000EC80691089307920068F04201D19819A5
:101D800008903246012306A903A800F037FA03ABF6
:101D900007C36D10641C002DE6D10998002806D0F9
:101DA00032466946012303A800F07EFA05E00123CC
:101DB0003246694603A800F021FA0A9B07C30DB01A
:101DC000F0BD0000C8450000034640000A4610B5BB
:101DD000400D0BD00121C9070F24A40200191C03D8
:101DE00064082143540D2143D20207E00021012061
:101DF000F2E7D40F490021435200401E0029F8DACF
:101E0000DB0FDB07184310BDFFB50D46144685B048
:101E10004868516803F020F900910190A868A16812
:101E200003F01AF902910390A868616803F014F9AD
:101E3000029A12188242029201D2012000E0002090
:101E4000019A0B18D2180028019202D08A4202D9B6
:101E500003E08A4201D2012000E000200099081826
:101E600000906868A16803F0F7F8029A121882429D
:101E7000029201D2012000E00020019A0B18D21832
:101E80000028019202D08A4202D903E08A4201D29C
:101E9000012000E0002000990818009028682168BF
:101EA00040004900400849084018FA49471814E022
:101EB00001994000C90F0843009001980299400021
:101EC000C90F08430190029803994000C90F0843C5
:101ED0000290039840007F1E039000980028E7DAE4
:101EE0000898002801D0EC4E00E00026B74201DA45
:101EF000012000E00020002804902AD0F71BF806FB
:101F0000C00E15D0029B2021091A039A8B401A4358
:101F10000392029A019BC2408B401A430292019A9B
:101F2000009BC2408B4000991A430192C14000912E
:101F30007B110DD06F460320C11A03D5002182000A
:101F4000B95003E08A008100BA587A50401EF3D598
:101F5000374603980299002800D0012001430898D1
:101F60000291002808460CD0002800D001200199D9
:101F7000019A490508430121D20AC902D2020192FD
:101F800000E001210E9B0122D207012B02D0002B81
:101F900003D013E0002807D120E0904204D89042FB
:101FA0000CD1019B0B4209D0019B5918019105D11D
:101FB0000099491C009101D17F1C009200280DD08E
:101FC000102108460020C0460498002806D00F982B
:101FD000002803D0082108460020C0462868216850
:101FE000019B009A4840C10F0598C90739430EC0AC
:101FF00009B0F0BDFFB587B0099A089808995368F1
:102000009268406889689646002203931746944672
:10201000089A12685300099A5B0812685200520825
:102020009A1A9E4BD4180A9A002A01D0352200E051
:10203000402206920022012315460492DB070593F5
:1020400024E0002D05D175460346039E4D1BB34188
:1020500009D375466646039B491B049D9841059B21
:102060007519AC465F4163463B4308D0059B049E0F
:10207000DD0776082E435B080496059301E0521EA7
:10208000641EC50FED0749184041521C069B9A4239
:10209000D7DB002D04D17546039A6B1A824101D219
:1020A00003200CE0039A0B466B404240134303D0DD
:1020B000014303D0012002E0022000E0002061463D
:1020C00001910021009702910A99002905D06146EB
:1020D00040020143704B019102E08007002302900F
:1020E0009C4201DA012000E0002007003AD01A1BD0
:1020F000D006C00E15D0029D2021019C091AC540B2
:102100008C402543029C8C4000D001242543019C37
:102110000295009DC4408D4000992C430194C1401C
:10212000009154111DD06D460221002202290CD1CC
:102130000320001B07E0002804DB8600AE59002EB8
:1021400000D00122401C0328F5DB081B02D58800C3
:102150002A5004E08000285810438A00A850491EE5
:10216000E3D51C460A98002802980CD0002800D01D
:1021700001200199019A490508430121D20AC902A7
:10218000D202019200E00121109B0122D207012B13
:1021900002D0002B03D013E0002807D11FE09042AB
:1021A00004D890420CD1019B0B4209D0019B5918D5
:1021B000019105D10099491C009101D1641C009244
:1021C00000280CD0102108460020C046002F06D061
:1021D0001198002803D0082108460020C04608981E
:1021E0000999019A009B006809684840C10F079847
:1021F000C907214382600AC00BB0F0BD00B585B0AD
:10220000019300920A460146002302A8FFF7FCFD55
:1022100002A807C805B000BDFFB50A461F4685B035
:102220000799019301230091014602A8FFF7ECFDF5
:1022300002990398049ECA0F4900D20700920F2208
:10224000490892028C1A0021002800DB0C46450048
:1022500013486D08844214D3079A002A04DA441EF6
:102260000026104DF64302E004460D460E461021AE
:1022700008460020C046002F03D004210846002055
:10228000C0462005E90A0843009908436905F20A97
:102290001143ADE602C0FFFF013C0000FF3F00001C
:1022A000FF070000FFFFFF7F00B585B0019300929C
:1022B0000A460146002302A8FFF79CFE02A807C8B1
:1022C000A8E7FFB50A461F4685B007990193012389
:1022D0000091014602A8FFF78DFE02990398049E23
:1022E000CA0F4900D20700920F22490892028C1AA5
:1022F0000021002800DB0C46450011486D0884428F
:1023000014D3079A002A04DA441E00260D4DF64322
:1023100002E004460D460E46102108460020C04645
:10232000002F03D0042108460020C0462005E90AFA
:102330000843009908436905F20A114358E6000072
:10234000FF070000FFFFFF7FC80212D54803400FC0
:10235000002804D0C803C043012188407047EFF330
:1023600000800001000903210907084380F3008869
:10237000704700207047000010B500200249029A03
:1023800000F074F810BD00000000F87F00487047AE
:10239000040300207546FFF7F9FFAE4605006946C5
:1023A0005346C008C000854618B020B5FDF714FF9D
:1023B00060BC00274908B6460026C0C5C0C5C0C5D8
:1023C000C0C5C0C5C0C5C0C5C0C5403D49008D46DB
:1023D000704710B50446C046C0462046FDF7CFFE04
:1023E00010BD0000024670B50A4392072AD11E4D67
:1023F000EE0104C808C9541B9443344017D0D0B22E
:10240000D9B2401A2106014310D190B299B2401AB4
:10241000210401430AD110021902000A090A401AD4
:102420002102014302D1100E190E401A70BD9A42CA
:10243000DFD010BA19BA884201D9012070BD00203E
:10244000C04370BD02780B78401C491C002A09D09B
:102450009A4207D102780B78401C491C002A01D00F
:102460009A42EFD0D01A70BD0101010110B50C469F
:102470001107090F092904D00A290AD008290CD10B
:1024800004E011460820FFF75FFF06E0510606D57D
:1024900001E0510601D50120C007214610BDD1063B
:1024A00007D501010909CC084907000E00060443BD
:1024B00009E0410F20024907000A0143200E0006EF
:1024C0001D22D14101430846E7E7000001491820D9
:1024D000ABBEFEE726000200704710B503890A462E
:1024E0004068194600F0BCF910BD000030B58DB051
:1024F000044606C42380083C03F05CFA002501234F
:102500002A460F21204603F085FC01220F21204698
:1025100003F00DFA03061B0E0FD02A4609A16846E8
:10252000FDF7EEFE6846FEF725F882B264236946A1
:10253000104801F057FC0DB030BD0FA16846FDF703
:10254000DFFEEFE7535049206CE1BB97692120473C
:1025500068693A203078253034582C20C490E1BB8B
:102560008D63206CE1BAA1693A2030782530345867
:102570000A000000CC010020535049204F4B21207D
:10258000C490E1BB8D6320676869207468C3A06E46
:10259000682063C3B46E672E0A0000003EB50024B5
:1025A000E4436D461CC50A460223A42100F008FA44
:1025B000052000F071F83EBD08B504236A46FFF718
:1025C000EDFF009808BD3EB50024E4436D461CC5F0
:1025D0000A460223A42100F09DFA052000F05CF8D1
:1025E0003EBD08B5009204236A46FFF7ECFF08BD24
:1025F00010B50146014801F010FE10BDDC020020BC
:1026000010B50146014801F008FE10BDF00200209F
:1026100030B5014620314B780022022B04D0042330
:1026200083630A70012030BD03681C680E25AC432B
:102630001C6003681C68640864001C600123056C4E
:102640001C46C06BAC4044604B700A70002030BD2B
:1026500070B50024014620314A78022A03D00421B3
:102660008163012416E0026813680E25AB431360F2
:10267000026813685B085B0013600122056C134657
:10268000AB40C56B6B604A7000220A70416B002939
:1026900000D08847204670BD70B5044600F0E6F8CB
:1026A0000546601C02D004480078241800F0DEF8CB
:1026B000401BA042FAD370BDA0000020F8B5002353
:1026C00003240125BAE02E469E40B44632407CD019
:1026D0000E79B607B60F012E01D0022E17D18668EB
:1026E0002746B6465E00B74000967646BE43B646DD
:1026F000CF68009EB7407646374387604668674696
:10270000BE430F79FF06FF0F9F40374347600E79A6
:10271000F643B6070ED0C6682746B4465E00B646F6
:10272000B7406646BE43B4468F687646B7406646B5
:102730003743C7600E79B607B60F022E14D1DE08F4
:10274000B60036180096366A5F07B446FE0E0F27AD
:10275000B646B7406646BE43B4460F697646B740B4
:1027600066463743009E376206682746B4465E00D9
:10277000B646B7406646BE430F79B446BF07BF0FA3
:102780007646B7406646374307604E68B603B60FD5
:1027900053D02D4FBE692E43BE61BE699F08F60718
:1027A000F60F2A4EBF00BE190096B6680F27B44632
:1027B0009E07360FB646B7406646BE430927FF065A
:1027C000B446B84202D1002710E036E0204FB842AC
:1027D00001D101270AE01F4FB84201D1022705E0CD
:1027E0001D4FB84201D1032700E005277646B740C8
:1027F00066463743009EB760184EB6684F689643EA
:10280000FF0200D51643154FBE60FE684F68964321
:10281000BF0200D51643114FFE607E684F68964395
:10282000BF0300D516430D4F7E603E684F68964348
:10283000FF0300D51643094A16605B1C0A6816465A
:10284000DE4000D03FE7F8BD00100240000001402C
:102850000004004800080048000C00480004014043
:10286000002A01D081617047816270470148806809
:1028700070470000A000002070B502464032537837
:10288000202B1CD11378012B19D001231370242481
:102890005470046825689D432560046825681E03FC
:1028A000B5432560046825680D432560006801680C
:1028B00019430160202050700020107070BD02206C
:1028C00070BD70B5024640325378202B1BD113786F
:1028D000012B18D0012414702423537003681D6841
:1028E000A5431D6005682B680F263602B343090215
:1028F000194329600068016821430160202050705D
:102900000020107070BD022070BD000070B5040082
:1029100006D02546403568780026002802D005E01C
:10292000012070BD2E70204600F09AF924206870B6
:10293000206801684908490001600F2160680906A4
:1029400088432168086121688A680120C0038243A6
:102950008A60E1680129A16808D02122920211430E
:1029600022689160E168022902D005E00143F7E79F
:1029700001212268C902516021684A680F4B1A433D
:102980004A602168CA688243CA6061692069084355
:10299000A169090208432168C860216AE069084307
:1029A00021680860206801680122114301606664A3
:1029B000202068702663AE70002070BD0080000289
:1029C000FFB5054604464035687883B0202875D1A8
:1029D0000C98002814D00D98002811D028780128D0
:1029E0006CD001202870FFF741FF074601220090BC
:1029F0001923D103204601F067FB002874D103E0BE
:102A00000120400260646FE0222068704020A870BE
:102A1000002666640C9860620D98608566630E9867
:102A20000090019704A90EC9204601F0D7FA0028AA
:102A300001D02E7058E0618D3448FF2905D9FF225E
:102A4000228501231B06009006E0618D2185009000
:102A5000208D0123C2B25B062046049901F01EFBC3
:102A600000970022042120460E9B01F02DFB002838
:102A70003AD12068406A616A0870606A401C6062EE
:102A8000208D401E81B22185608D401E6085608D45
:102A900000281FD000291DD1009700228021204648
:102AA0000E9B01F011FB00281ED1608DFF2806D976
:102AB000FF22228501231B06009607E024E0608D9B
:102AC00020850096208D0123C2B25B062046049922
:102AD00001F0E4FA608D0028C2D13A4620460E99F2
:102AE00001F023FB002802D0012007B0F0BD2068D0
:102AF0002021C16120684268054B1A40426069701C
:102B0000AE702E700020F0E70220EEE70024008077
:102B100000E800FEFFB5054604464035687883B0FE
:102B2000202872D10C98002814D00D98002811D0BC
:102B30002878012869D001202870FFF797FE074602
:102B4000012200901923D103204601F0BDFA00288C
:102B500071D103E00120400260646CE021206870C4
:102B60004020A870002666640C9860620D9860850D
:102B700066630E980090019704A90EC9204601F0E3
:102B80005DFA002801D02E7055E0608DFF2805D930
:102B9000FF22228501231B06009606E0608D20851A
:102BA0000096208D0123C2B25B062046049901F0F5
:102BB00075FA3A4620460E9901F0E2FA00283AD119
:102BC000606A216800788862606A401C6062608D7B
:102BD000401E6085208D401E80B22085618D0029B9
:102BE0001FD000281DD100970022802120460E9B77
:102BF00001F06AFA00281ED1608DFF2806D9FF2255
:102C0000228501231B06009607E024E0608D2085C5
:102C10000096208D0123C2B25B062046049901F084
:102C20003DFA608D0028C4D13A4620460E9901F045
:102C30007CFA002802D0012007B0F0BD20682021D6
:102C4000C16120684268054B1A4042606970AE70ED
:102C50002E700020F0E70220EEE7000000E800FE02
:102C600010B586B0044614216846FDF7C3FC12492E
:102C7000206888421ED1114C616901208004014303
:102C80006161616901400591C020009012200190AE
:102C90000020029003200390012004906946084818
:102CA000FFF70CFDE169012040050143E161E169A5
:102CB0000140059106B010BD0054004000100240D4
:102CC00000040048024881680278891881607047D2
:102CD000A000002010B506480168102211430160D1
:102CE000032000F007F800F027F8002010BD0000D6
:102CF0000020024070B504460D4D7D202978C000AB
:102D0000FDF77AFC01460B480068FDF775FC00F002
:102D100053FE002809D1042C07D200222146401E70
:102D200000F02AF800206C6070BD012070BD00002A
:102D3000A0000020AC00002008B5084881690122ED
:102D400011438161816911400091C26901040A4304
:102D5000C261C0690840009008BD00000010024038
:102D6000002805DBC106C90E012088400149086022
:102D70007047000000E100E010B502F09BF910BDC3
:102D8000F8B505460068354CC00352D5E069002609
:102D9000C00007D4E16920040143E161E169014019
:102DA000012600912E480168C90510D401688215DA
:102DB00011430160FFF75AFD074604E0FFF756FD97
:102DC000C01B642824D826480068C005F6D5206AB0
:102DD00003273F02384020D06968394081421CD027
:102DE000206A226AB843012109040A432262226A46
:102DF0008A4322622062C0070FD0FFF737FD0090A0
:102E000008E0FFF733FD0099411A1648814201D9C5
:102E10000320F8BD206A8007F3D5206A6968B843AB
:102E200008432062002E04D0E1690120000781439D
:102E3000E1612878C00705D0206BA9688008800070
:102E4000084320632878800605D5206B102188432D
:102E5000E968084320630020F8BD0000001002402C
:102E60000070004088130000F8B50F46060059D0E6
:102E70003A4D2868C007C00FB84209D228684008F8
:102E80004000384328602868C007C00FB84249D1C5
:102E90003068334C81070CD5400704D560680721A2
:102EA0000902084360606068F0218843B168084304
:102EB00060603078C00726D0706801280ED0216885
:102EC00002280ED0890700292CDA61688908890058
:102ED00001436160FFF7CAFC00900DE0216889039F
:102EE000F1E78901EFE7FFF7C1FC0099411A1D489E
:102EF000814201D90320F8BD60680C210840716847
:102F000089008842EFD12868C007C00FB8420BD9AA
:102F1000286840084000384328602868C007C00F70
:102F2000B84201D00120F8BD3078400706D560686E
:102F3000072109028843F1680843606000F028F81F
:102F40006168094A0906090F515CC84007490860D1
:102F50000320FFF7CFFE0020F8BD00000020024054
:102F60000010024088130000B0610008AC0000208F
:102F70000448054900684968044A4905490F515CFD
:102F8000C8407047AC00002000100240C06100083B
:102F900010B5104A51680C200B4603400E48042B14
:102FA00017D0082B15D18B020C4C1B0FE45CD26A96
:102FB0000A4B1207120F10339A5CC90305D5002380
:102FC0001946FDF71BF9214601E02046044902F0AD
:102FD00043F810BD0010024000127A009061000812
:102FE00000093D00FEB5040070D02078DC4DC0071C
:102FF0004AD068680007800F012807D0686800077A
:10300000800F022809D16868C00306D528688003AC
:103010003AD560680028E7D036E06168012914D00D
:1030200001208004002901D0052914D02A6801213B
:1030300009048A432A60296881432960606800285E
:1030400016D0FFF713FC06460EE02868012109049C
:1030500008432860F2E7296801432960F5E7FFF794
:1030600005FC801B64286ED828688003F7D50BE028
:10307000FFF7FCFB064604E0FFF7F8FB801B642823
:10308000F1D828688003F7D420780126800700282B
:103090003CDA68680007800F07D068680007800F77
:1030A000022809D16868C00306D42868800716D5AD
:1030B000E06801280AD112E0E0680028286816D0EC
:1030C00030432860FFF7D2FB074605E043E1FFF7F6
:1030D000CDFBC01B0228C6D828688007F7D5286812
:1030E000F82188432169C900084328600EE04008A0
:1030F00040002860FFF7BAFB074604E0FFF7B6FB85
:10310000C01B0228AFD828688007F7D420780007B2
:1031100022D5E0690028686A0ED030436862FFF764
:10312000A5FB074604E0FFF7A1FBC01B02289AD8C5
:10313000686A8007F7D50FE0400840006862FFF733
:1031400095FB074605E09DE0FFF790FBC01B0228BA
:1031500089D8686A8007F7D42078042740070028B8
:1031600060DA00200190E869C00008D4E969B80677
:103170000143E961E969014001200091019079482A
:103180000168C90511D40168821511430160FFF778
:103190006DFB009005E0FFF769FB0099401A642879
:1031A00070D870480068C005F5D5A06801280AD01D
:1031B000002801D0052810D0286A40084000286265
:1031C000286AB84301E0286A30432862A0680028D2
:1031D00012D0FFF74BFB00900AE0286A38432862C0
:1031E000F1E7FFF743FB0099411A5F48814249D854
:1031F000286A8007F5D50DE0FFF738FB009006E060
:10320000FFF734FB0099411A574881423AD8286A9F
:103210008007F5D40198002804D0E969012000074F
:103220008143E9612078C00635D5606901280CD05A
:10323000401D686B23D038436863686B40084000CA
:103240006863FFF713FB064622E0686B3843686348
:10325000686B30436863FFF709FB064604E0FFF73D
:1032600005FB801B02285BD8686B8007F7D5686B6D
:10327000F8218843A169C900084368630BE0B8439B
:103280006863F4E74CE0FFF7F1FA801B022847D8A7
:10329000686B8007F7D4206A00285ED06968090748
:1032A000890F022942D0012636060228286805D057
:1032B000B0432860FFF7DAFA044633E0B0432860F1
:1032C000FFF7D4FA074604E0FFF7D0FAC01B022844
:1032D00026D828688001F7D4E86AE16A000900016D
:1032E0000843E862616AA06A084369683D221204E3
:1032F000914308436860286830432860FFF7B6FAB6
:10330000044604E0FFF7B2FA001B022808D8286838
:103310008001F7D521E0FFF7A9FA001B022801D9A7
:103320000320FEBD28688001F5D416E00128F8D0FE
:103330006868E96A01221204636A02409A420AD16B
:103340000907E26A090F914205D10F21890408405B
:10335000A16A884201D00120FEBD0020FEBD000010
:10336000001002400070004088130000F8B504000F
:103370000CD0606A002500280AD0256165612646C8
:103380004036A562707F002808D00BE00120F8BD10
:103390006168C81FFD38F2D0E561F0E73577204657
:1033A00000F05CF80222727720680168402399439C
:1033B00001600723E1681B02994201D9002001E066
:1033C000012000030F273F02B94202D0994200D0EA
:1033D000A562FF236168053319402127A368BF0256
:1033E0003B40194323691340227D1943D207D20F72
:1033F00011430123A2695B021A401143E269382399
:103400001A401143226A80231A401143A26A9B0189
:103410001A40114322681160A1690422090C11406D
:10342000626A10231A401143626B08231A40114349
:103430000F23E2681B021A401143012212031040BD
:103440000143206841602068C16952109143C16105
:103450002566012070770020F8BD000030B587B0E8
:10346000044614216846FDF7C5F824681E4D002166
:103470001E4802230322AC4217D1856984142543D8
:10348000856185692540059545691C04254345618D
:103490004069029120400590E020009004910920AD
:1034A000019303926946C00619E0114DAC4218D150
:1034B000C56924142543C561C5692540059545693D
:1034C0002401254345614069029120400590072071
:1034D0004003049100900193039269460548FFF769
:1034E000EDF807B030BD0000003001400010024090
:1034F0000038004000040048FFB500260546044699
:103500004035687F81B01746012801D00226A3E02C
:103510006168C81FFD3802D1A068002824D0287F28
:1035200001282DD001202877FFF7A0F900900298FC
:10353000002871D0002F6FD004206877002020660B
:1035400002992164AF80EF80A063A087E087E064E8
:10355000206507210120E268090200038A422268EF
:1035600053680FD983430EE004206877134604980C
:10357000029A00901146204600F022F905B0F0BDF5
:103580000220FBE7034353600123A068DB034022D2
:10359000984208D120680368934303602068036859
:1035A0001702BB430360206803685B0602D403680C
:1035B00013430360E06888421AD93AE020688168C2
:1035C000C90709D0007B216C0870206C401C206466
:1035D000E888401EE8800BE0FFF748F90099411A9F
:1035E0000498814202D3401C02D005E0002803D099
:1035F000E8880028E2D11FE003262BE020688168DC
:10360000C9070AD0C068216C0880206C801C206427
:10361000E888401EE8800CE01AE0FFF727F90099DF
:10362000411A0498814202D3401C02D0E4E70028EA
:10363000E2D0E8880028E1D12046009A049900F001
:10364000B9FF002801D020202066206E002801D07C
:10365000012601E0012068770020287730468DE7B9
:10366000FFB5054604464035287F002781B0164641
:10367000012809D001202877FFF7F8F80090687F2B
:10368000012804D0022797E0022005B0F0BD02987F
:10369000002874D0002E72D00320687700202066A6
:1036A0000299A163A687E6872064A880E880206548
:1036B000E0640122A068D2034021904208D1206832
:1036C00002688A430260206802680B021A430260A3
:1036D00020680268520602D402680A430260072189
:1036E000E06809028842606828D9002801D0012ECC
:1036F0001ED1A06B21680088C86006E02068816840
:10370000890709D5A16B0988C160A06B801CA063E3
:10371000E08F401EE0870BE0FFF7A8F80099411A00
:103720000498814202D3401C02D005E0002803D057
:10373000E08F0028E2D128E003273BE0002801D0F9
:10374000012E1FD1A06B21680078087306E0206865
:103750008168890709D5A16B09780173A06B401CAA
:10376000A063E08F401EE0870CE0FFF77FF8009930
:10377000411A0498814203D3401C03D0DCE717E0D0
:103780000028D9D0E08F0028E1D12046009A049982
:1037900000F04CFF002801D020202066A0680028FF
:1037A00003D12068C16880680090206E002801D095
:1037B000012701E00120687700202877384664E778
:1037C000FFB5044683B00120254640350090287F90
:1037D00000271E4601280FD001202877FFF746F862
:1037E0000190687F616801280DD0CA1FFD3A08D199
:1037F000A168002905D102E0022007B0F0BD04282D
:1038000001D00227D4E0049800286FD00598002842
:10381000FBD0002EF9D0687F042801D005206877FE
:103820000020206605992164EE80AE800499A16392
:10383000E687A687E064206507210120E268090287
:1038400000038A422268536801D9834300E003439E
:10385000536020680268520603D4026840231A436A
:103860000260E0688842606848D9002801D0012ED3
:103870003DD1A06B01882068C160A06B801CA06353
:10388000E08F401EE08732E020688168890710D50C
:10389000E18F00290DD0009901290AD1A16B098877
:1038A000C160A06B801CA063E08F401EE0870020F9
:1038B000009020688168C9070DD0E98800290AD0E6
:1038C000C068216C0880206C801C2064E888401E41
:1038D000E88001200090FEF7C9FF0199401A0C9979
:1038E000884204D3481C02D003275FE05CE0E08FED
:1038F0000028C9D1E8880028C6D148E0002801D0B6
:10390000012E3ED1A06B216800780873A06B401C8B
:10391000A063E08F401EE08733E02068816889075C
:1039200010D5E18F00290DD0009901290AD1A16B92
:1039300009780173A06B401CA063E08F401EE087F4
:103940000020009020688168C9070DD0E98800290F
:103950000AD0007B216C0870206C401C2064E88831
:10396000401EE88001200090FEF780FF014601988C
:10397000091A0C98814202D3401C02D0B4E70028F7
:10398000B2D0E08F0028C8D1E8880028C5D12046F1
:10399000019A0C9900F04AFE002802D0012720204D
:1039A0002066206E002801D0012701E00120687701
:1039B00000202877384620E7094910B5401E884284
:1039C00001D9012010BD074C60610321081F01F0DF
:1039D00071FB0020A06107202061002010BD0000C5
:1039E000FFFFFF0000E000E070477047F8B5026895
:1039F0000446D069116893689E4D06462E402546C0
:103A00008035002E71D09C4FDE07F60F0F403743F4
:103A10007ED0C70706D0CF0504D5012717626A6894
:103A20003A436A60820708D5DA0706D0276802227F
:103A30003A626A6804273A436A60420708D5DA079F
:103A400006D0236804221A626A6802231A436A6055
:103A5000020709D520220A40324305D023680822F4
:103A60001A626B6813436B60020509D54A0107D5DA
:103A700001222368D2021A626B68202213436B6012
:103A80006A68002A39D0800606D5880604D5A16E5A
:103A9000002901D02046884768682168896849065E
:103AA00002D4282108422DD0204601F099F821683F
:103AB0008868400622D5EFF31080012282F3108837
:103AC0008A6840239A438A6080F31088606F0028D8
:103AD00014D06A494163606FFEF7BAFD00280CD02C
:103AE000606F416B08E000E012E0830610D58B06A2
:103AF0000ED5A16EA3E020468847F8BD2046FFF70B
:103B000074FFF8BD2046FFF770FF00206860F8BD25
:103B1000236E012B7ED1C3067CD5CB067AD510232C
:103B2000136222689068264640064036002848DA2C
:103B3000616F086840680004000CE8D0378B87424A
:103B4000E5D970838869202834D0EFF310800121F3
:103B500081F3108811681F01B943116080F3108848
:103B6000EFF31080012181F3108821688A685208E0
:103B700052008A6080F31088EFF31080012181F3F6
:103B8000108821688A684027BA438A6080F31088C9
:103B90002020286000202066EFF31080012181F3AF
:103BA000108821680A689A430A6080F31088606F61
:103BB000FEF72EFD02206066308B718B401A81B2B9
:103BC00034E0308B718B401A81B2708B00289ED00C
:103BD00000299CD0EFF31080012686F31088166828
:103BE000FF272137BE43166080F31088EFF3108063
:103BF000012282F310882268966876087600966023
:103C000080F310882020286000202066A066EFF353
:103C1000108000E00EE0012282F31088226815680F
:103C20009D43156080F31088022060662046FFF7F0
:103C3000DBFEF8BD030606D50B0604D5E16E0029B0
:103C400000D058E7F8BD4006FCD54806FAD5204616
:103C5000EFF31081012383F31088146840239C4301
:103C6000146081F310882021C1670021C16600F033
:103C700019F9F8BD0F08000020010004CD4B000821
:103C800010B5040003D0E06F002802D007E0012047
:103C900010BD002178200155204600F027F824208F
:103CA000E06720680168490849000160204601F08A
:103CB00095F80128ECD0606A002802D0204600F078
:103CC000BDFE206841680122D20291434160206814
:103CD00081680822914381602068016801221143B4
:103CE0000160204600F010FF10BD000010B586B046
:103CF000044614216846FCF77DFC17492068884279
:103D000027D116488269012189030A4382618269A9
:103D10000A4005924269C9000A434261406908406D
:103D200005900320400200900220019000200290A4
:103D3000032003900120049009206946C006FEF785
:103D4000BDFC002211461B20FFF716F81B20FFF7D1
:103D500007F806B010BD0000003801400010024016
:103D600070B580231B58202B01D0022070BD002984
:103D70000BD0002A09D0012483682403A34206D172
:103D80000369002B03D1CB0701D0012070BD0023B4
:103D90000366046863681B020BD5EFF310830125EB
:103DA00085F3108825680126B6063543256083F320
:103DB000108801F0ABF870BD0EB500680849884264
:103DC0000CD102AA01A9684600F0B0FB684601794F
:103DD0000088029A00F042FB00F0DAFB0EBD000002
:103DE00000380140FFB50446C06F83B017460D464A
:103DF000202802D0022007B0F0BD002D0BD0002FEC
:103E000009D00120A1680003814206D12069002861
:103E100003D1E80701D00120EDE700218420015102
:103E20002120E067FEF722FD2646403601903782CA
:103E300077820120A1680003814202D12069002815
:103E400002D02F46002511E000270FE0002280213C
:103E5000204601F0B3F8002815D1002F17D02168B3
:103E6000387808857F1C708A401E7082708A019B9A
:103E7000002806980090E9D100224021204601F058
:103E80009DF800280AD02020E0670320B3E72888A7
:103E90002168C005C00D0885AD1CE4E72020E0675F
:103EA0000020A8E77047FEE701688A69D2439207BD
:103EB00001D400228A6200688169C943C90703D01E
:103EC000816901221143816170470000F7B5044602
:103ED000006882B0816900262746C906403735460A
:103EE0000092002945DA1021C16132E00398401C9C
:103EF0002FD0FEF7BBFC0099411A0398814201D8EC
:103F0000002826D120684168012292031140BA7826
:103F10008369DB431B0417D401239B03994213D00D
:103F2000202A11D0416819434160FEF79FFC0090A0
:103F30000AE0FEF79BFC01460098081A192803D9ED
:103F400020200543012604E020688069C0438006E4
:103F5000EFD420688069C043800602D5002EC5D00A
:103F600004E0002E02D121682020C861042005430E
:103F7000012621688869C20504D501221543120271
:103F8000CA610126410508D508210D43CA012168EF
:103F9000CA610126800502D40AE0800506D5022008
:103FA000054321680002C861012601E0002E0FD000
:103FB0002046FFF779FF20684168074A11404160B9
:103FC000606C28436064202078700020B8703870DE
:103FD000304605B0F0BD000000E800FEF8B504462C
:103FE000164615481D46DAB20090079F002320466A
:103FF00000F054F83A462046069900F0C1F800282F
:1040000018D12846F5B2012809D02168300A886203
:104010003A462046069900F0B3F800280AD12068F5
:1040200085620097002240212046069B00F04CF854
:10403000002800D00120F8BD00200080F8B504461B
:10404000164615481D46DAB2C3020090079F204667
:1040500000F024F83A462046069900F091F800282E
:1040600018D12846F5B2012809D02168300A8862A3
:104070003A462046069900F083F800280AD12068C5
:1040800085620097002280212046069B00F01CF8E4
:10409000002800D00120F8BD00200080890510B55F
:1040A000890D12041143029C1943026821434900FF
:1040B00050684908630D034C2343984308435060FC
:1040C00010BD0000FF63FF03F8B51E4617460D46FE
:1040D00004461EE0701C1CD0FEF7C8FB0699401A6F
:1040E000B04201D8002E14D1206881692846884347
:1040F0000DD00020B8420CD1616C202001436164D6
:10410000403460700020A07020700120F8BD0120B4
:10411000F0E7206881692846884304D00020B8422F
:10412000D8D00020F8BD0120F9E770B516460D463D
:1041300004461EE0324629462046FFF7C7FE002807
:1041400001D0012070BDFEF791FB801BA84201D871
:10415000002D0ED120688069C043800609D5616CAE
:10416000202001436164403460700020A070207002
:10417000E7E720688069C0438006DBD4002070BD7B
:1041800070B516460D46044620E0324629462046C4
:10419000FFF79CFE002801D0012070BD681C15D0DF
:1041A000FEF764FB801BA84201D8002D0ED12068C9
:1041B0008069C043800709D5616C20200143616498
:1041C000403460700020A0702070E5E720688069AE
:1041D000C0438007D9D4002070BD000010B57F24F3
:1041E000E405002322460649064800F00FF805487A
:1041F0003F22054B12062146143000F007F810BD8F
:104200000AD7233CDC02002000005C430EC07F2163
:10421000C9050160002141607047F3B5044601689B
:1042200081B0C06801F056FE0746616801F052FE99
:1042300001463846FDF772F82061A5680646294612
:10424000029801F0E5FE314601F08AFE294601F0B0
:1042500041FE0546A0607F203146C00501F0D8FE32
:10426000394601F07DFEE0602846FEBDF0B587B01E
:1042700014216846FCF7BEF91C4842690121490433
:104280000A43426142690A400592426949000A4371
:1042900042614069164C08400927FF06059000223C
:1042A00021463846FEF7DCFA124E0022314612480B
:1042B000FEF7D6FA00940024012501950294694680
:1042C00038460394FEF7FAF90220009001946946FB
:1042D00002940948FEF7F2F90294694606480096EE
:1042E00001950394FEF7EAF907B0F0BD0010024013
:1042F00010190000040400000004004810B5134821
:1043000011490160124941600021816001614161F0
:1043100081610122C161C2600162FEF7F7FA0028E3
:1043200001D072B6FEE700210848FEF7A5FA002882
:1043300001D072B6FEE700210448FEF7C2FA002859
:1043400001D072B6FEE710BD00540040B00000205E
:104350000E09002010B511480F490160FF210531F9
:10436000416000210722816012020161C2600122C6
:10437000416152028261016210224162C261816226
:1043800007220163C2624163FEF7F0FF002801D0FB
:1043900072B6FEE710BD00000030014004010020AD
:1043A00010B511480F490160FF210531416000211E
:1043B0000722816012020161C2604161C161012274
:1043C000016252024162826181620722C26201631C
:1043D00008214163FEF7CAFF002801D072B6FEE74C
:1043E00010BD0000003800406801002010B50C48E6
:1043F0000A490160E1214902416000218160C160F8
:1044000001618161C1610C22016242614162FFF779
:1044100037FC002801D072B6FEE710BD003801401D
:10442000CC010020FEE7704770B505460948002220
:10443000094C0CE0AB5C58400823C60702D040088A
:10444000604000E040085B1EF7D1521C92B28A42E5
:10445000F0D370BDFFFF000001A0000070B515464D
:104460000C46012824D126492648B12C27D010DC3F
:10447000812C37D007DC512C1BD0612C18D1104671
:1044800000F042FE18E0912C2AD0A12C10D1C06A75
:1044900016E0D12C1BD005DCC12C16D0C22C07D1C4
:1044A000406D0DE0E02C28D0F02C01D101F054FB40
:1044B00070BD104601F0F0FA00210F201AE0406BA9
:1044C00001F04EFDFCF7DAFF12E0806CF8E7012105
:1044D0000920EAB2C902C006FEF7C2F9294608E07F
:1044E000406AEDE7016F426F08461146FCF778FD20
:1044F0000146204601F08EFA70BD01F079FA70BDD8
:104500000000C8422000002010B50121092000222F
:104510000903C006FEF7A4F90B2202490248FFF77F
:104520001FFC10BDCF020020CC010020F0B50746D3
:1045300016480E4601781546AA2926D1817ABB294C
:1045400023D101468A784B781102194349BA398040
:10455000C17831704179027909021143827949BAEF
:10456000090412021143C27911432960417A027A87
:10457000090211434CBA0721401CFFF755FF844242
:1045800003D00020388030702860F0BDCF020020BA
:1045900010B50121092000220903C006FEF760F9C9
:1045A0000B2202490248FFF7DBFB10BDCF020020BF
:1045B000CC010020F7B504464068FF26053682B0DE
:1045C0001546B0420CD10121A068C903884202D02F
:1045D0004911884204D1206801684022914301605A
:1045E0000095002280212046039B00F0B1F820278F
:1045F000002813D16068B04216D1A068B902884281
:1046000002D0491188420FD10321009500224902AE
:104610002046039B00F030F8002805D0206E384378
:104620002066032005B0F0BD0020FBE7F8B50F467B
:104630000B4615460092032104460022C90200F0F1
:104640001BF82026002812D13B460022802120465C
:10465000009500F07DF8002809D103213B46002297
:1046600049022046009500F007F8002803D0206E8C
:10467000304320660320F8BDFFB585B00E460446E2
:10468000002069460E9D17460871FEF7EFF8411BA2
:104690000898451AFEF7EAF80390206823210C30A9
:1046A00002902A4800684843000D684346E0032012
:1046B0004002864206D1002F04D102980178684654
:1046C000017100790898401C39D0FEF7CFF80399A2
:1046D000401AA84205D2002D03D0009800282BD004
:1046E0002BE020684168E022914341606068C11F6F
:1046F000FD390CD10121A068C903884202D04911BB
:10470000884204D120680168402291430160012061
:10471000A16A4003814207D121680A6882430A6086
:1047200021680A6802430A60012040346077002053
:104730002077032009B0F0BD0025401E00902068BE
:1047400080683040B842B2D10020F3E7AC000020CE
:10475000FFB581B01E4604460A9DFEF787F8401B50
:10476000351AFEF783F80746264800684001000D19
:10477000684339E0701C38D0FEF778F8C01BA842B7
:1047800005D2002D03D0009800282BD02BE0206804
:104790004168E022914341606068C11FFD390CD13E
:1047A0000121A068C903884202D04911884204D17E
:1047B000206801684022914301600120A16A400302
:1047C000814207D121680A6882430A6021680A6829
:1047D00002430A60012040346077002020770320E4
:1047E00005B0F0BD0025401E009020688168029849
:1047F000884305D0002103988142BBD10020EFE718
:104800000121F8E7AC000020704710B5FEF75AFA16
:1048100010BD10B594B030216846FBF7EBFE0024C4
:104820000F9402200D9400901294012003900E9496
:10483000139410200C9404901094119408946846DA
:10484000FEF7D0FB002801D072B6FEE707200C90DF
:104850000D940E9400210F940CA8FEF705FB002880
:1048600001D072B6FEE7212010901294139410A884
:10487000FEF786FA002801D072B6FEE714B010BD2C
:1048800070473EB5044668460171206801688A6831
:104890009207FCD501210B46009102AA01A9FEF75F
:1048A0008FFF2068006881680906FCD46846007A9A
:1048B0003EBD0000F0B5A1B00746092100F0AEFFF3
:1048C000044602462CA16846FBF71AFD6846FBF732
:1048D00051FE002682B2F643334669462C48FFF764
:1048E00081FA20462021084302460921384601F07A
:1048F0003FFA0A20FDF7D0FE0921384600F08EFF6E
:104900000546024623A16846FBF7FAFC6846FBF71A
:1049100031FE82B2334669461D48FFF763FAA806A6
:1049200001D523A100E02FA16846FBF7E9FC68460A
:10493000FBF720FE82B2334669461548FFF752FA6C
:1049400022460921384601F013FA0A20FDF7A4FE99
:104950000921384600F062FF024632A16846FBF7A3
:10496000CFFC6846FBF706FE82B23346694608482C
:10497000FFF738FA21B0F0BD4D4F4445206F726902
:1049800067696E616C3A203078253034580D0A0022
:10499000CC0100204D4F444520616674657220773C
:1049A000726974653A203078253034580D0A000059
:1049B000204269742035202854454D5053454C29D8
:1049C00020C491C3A320C491C6B0E1BBA3632073EC
:1049D0006574207468C3A06E682063C3B46E672ECC
:1049E0000D0A0000204269742035202854454D509E
:1049F00053454C29206368C6B06120C491C6B0E11C
:104A0000BBA363207365742C206B69E1BB836D20AD
:104A1000747261206CE1BAA169205350492E0D0ACD
:104A2000000000004D4F444520726573746F72653D
:104A3000643A203078253034580D0A0010B5818C46
:104A4000C90707D001684A6801235B049A43836A57
:104A50001A434A60818C890707D501684A68012397
:104A60001B049A43C36A1A434A60818C490707D5DD
:104A700001684A6801239B049A43036B1A434A6006
:104A8000818C090707D501684A680123DB039A4333
:104A9000436B1A434A60818CC90607D50268916846
:104AA00001231B039943836B19439160818C890611
:104AB00007D501688A6801235B039A43C36B1A43D5
:104AC0008A60818C490612D503685A68012109055C
:104AD000046C8A4322435A60026C8A4207D10268FE
:104AE000516803235B059943436C19435160818CE2
:104AF000090607D501684A680123DB04806C9A43E4
:104B000002434A6010BD0000FEB50746002580370D
:104B100004467D60FDF7AAFE0190206800682646E5
:104B200000076036002819DA27480090012100228A
:104B300049052046019B00F041FA00280ED0EFF312
:104B40001080012181F3108821680A6880239A432C
:104B50000A6080F310882020E06729E02068006860
:104B6000400728D5184800900121002289052046D9
:104B7000019B00F023FA00281DD0EFF310800121E3
:104B800081F3108821680A68FF2321339A430A6061
:104B900080F31088EFF31080012181F310882168E1
:104BA0008A68520852008A6080F31088202038609A
:104BB00035760320FEBD2020E067386025666566F7
:104BC00035760020FEBD0000FFFFFF0110B5406AF2
:104BD0000022014640314A834A82FEF706FF10BD9B
:104BE00010B5EFF31081012282F310880268136878
:104BF000FF242134A343136081F31088EFF3108165
:104C0000012282F31088026893685B085B0093605E
:104C100081F31088016E01290BD1EFF3108101227D
:104C200082F31088026813681024A343136081F391
:104C30001088202280210A5000210166816610BD63
:104C400070B501464031034680338C8B1D68026885
:104C5000222D04D0906908210843906170BD928C88
:104C6000456D22402A80426D921C42654A8B521E3D
:104C70004A834A8B002AF1D1EFF31082012484F396
:104C8000108804682568FF262136B543256082F325
:104C90001088EFF31082012484F310880468A5685B
:104CA0006D086D00A56082F3108820221A60002331
:104CB000836643660468626812020BD5EFF31082C4
:104CC000012585F3108825680126B606B5432560C1
:104CD00082F31088026E012A02D0FFF76DF870BDD2
:104CE0000366EFF31082012383F3108804682568BC
:104CF00010239D43256082F310880268D469E44341
:104D0000E40600D41362098BFEF76EFE70BD70B529
:104D100001464031034680338C8B1D680268222D8A
:104D200004D0906908210843906170BD928C2240A4
:104D3000446D2270426D521C42654A8B521E4A835A
:104D40004A8B002AF1D1EFF31082012484F31088FA
:104D500004682568FF262136B543256082F3108854
:104D6000EFF31082012484F310880468A5686D08AD
:104D70006D00A56082F3108820221A6000238366EC
:104D800043660468626812020BD5EFF310820125B6
:104D900085F3108825680126B606B543256082F3A1
:104DA0001088026E012A02D0FFF706F870BD036674
:104DB000EFF31082012383F3108804682568102321
:104DC0009D43256082F310880268D469E443E406B9
:104DD00000D41362098BFEF707FE70BD70B5044660
:104DE00080682169E26908436169002511432268EE
:104DF000084311683F4B194001431160216848681E
:104E0000032212039043E26810434860A169206ABC
:104E1000084321688A680B231B029A4302438A6075
:104E200035492068884210D13448006B8007800FD4
:104E30000ED0012805D0022805D003280AD102216E
:104E400009E0042107E0082105E02D49884201D14D
:104E5000002100E010210120E369C003294A2A4E05
:104E6000834222D1002906D0022907D0042907D085
:104E7000082935D108E0FEF77BF803E0104603E08F
:104E8000FEF786F8002830D0616840004A08801894
:104E9000FBF7B2FB01461039B14221D81A49491C2F
:104EA00001400007400F08431DE0002906D00229F9
:104EB00007D0042907D0082912D108E0FEF758F8D6
:104EC00003E0104603E0FEF763F800280DD06168A8
:104ED0004A081018FBF790FB01461039B14201D97E
:104EE000012502E080B22168C8600020A066E0666B
:104EF000284670BDF369FFFF0038014000100240F2
:104F00000044004000127A00EFFF000030B5416518
:104F1000014640310A834A83002383660122856863
:104F20001203FF24954204D10569002D2ED1204C97
:104F30002CE0002D26D08B83014680314B6022234C
:104F40000B60EFF31081012383F3108803689C68E2
:104F500001252C439C6081F310888168914202D125
:104F60000169002914D0134981660169002911D013
:104F7000EFF31081012282F3108800680268FF239A
:104F800021330FE00569002D00D07F248C83D3E707
:104F900009498166EFF31081012282F310880068CD
:104FA000026820231A43026081F31088002030BD7C
:104FB000FF0100000F4D0008414C0008FFB50646F8
:104FC00081B080360546044660350A9F2EE0781C85
:104FD0002CD0FDF74BFC0499401AB84214D8002F8E
:104FE00012D020680168490720D5C169C943090763
:104FF0000CD4082707622046FFF7F2FD77600020F7
:105000002876012005B0F0BD0320FBE7C069C0434E
:1050100000050BD401202168C00208622046FFF77A
:10502000DFFD2020706000202876EDE72068C16950
:105030000298884305D0002103988142C7D0002000
:10504000E0E70121F8E7000010B50248FEF7CEFCCA
:1050500010BD0000CC010020F8B5040C8BB2264630
:1050600082B25E430D0C1046370C5843360480194B
:105070000021794116466E43370C36048019794178
:1050800026466E438919F8BD4900CA020243100042
:1050900000D004204A0D01D001221043044A490DDA
:1050A000914201D102210843012800D10520704717
:1050B000FF0700008307FF22DB0E9A408907090ED5
:1050C0009940002808DB830809489B001B181868D2
:1050D00090430843186070470007000F08388308A2
:1050E00004489B001B18D86990430843D861704757
:1050F00000E400E000ED00E030380A2801D2012091
:10510000704700207047000070B5FBF7B6FF094EEE
:1051100004460D467069FCF7D7F822462B46FBF78C
:10512000D5FCFBF719FB0246706110210248FDF720
:1051300058FA70BD20000020B0000020F8B500250E
:105140000E4607462C460EE0384600F030F838464A
:1051500000F010F81621384600F084FB45190A20AB
:10516000FDF79AFA641CB442EEDB31462846FBF7A1
:1051700043FAF8BD10B50B2100F050FB10BDF8B597
:1051800000250E4607462C4609E0384600F00FF889
:105190002721384600F042FB401985B2641CB44216
:1051A000F3DB31462846FBF731FA80B2F8BD10B583
:1051B0000C2100F033FB10BDF3B5002581B00F4684
:1051C0002C460EE0FDF752FB06460921019800F03F
:1051D00025FB80060DD42621019800F08FFB2D18A9
:1051E000641CBC42EEDB39462846FBF70FFA40B29E
:1051F000FEBDFDF73BFB801B6428E6D97E20C04343
:10520000FEBDF8B500250E4607462C460EE0384692
:10521000FFF7CDFF3846FFF7ADFF1721384600F006
:1052200021FB45190A20FDF737FA641CB442EEDB76
:1052300031462846FBF7E0F9F8BD000010B50446FA
:105240008C22092100F094FD01212046FFF776FF12
:105250000C4C2063E1684843216940187D21C90056
:10526000FBF7CAF9FBF709FFE1660022064BA066CF
:10527000FBF75CFCFBF770FA6063FDF7B9F960635C
:1052800010BD00002000002000408F4010B50446F3
:105290008C22092100F06CFD01212046FFF76FFFF1
:1052A000054C40002062FCF72DF901460348FCF74D
:1052B00035F8606210BD000020000020647ADA48F2
:1052C00070B50546042100F0F3FA2F4C0821E06385
:1052D000284600F0EDFA60640721284600F0C2FA83
:1052E00020642846FFF763FF206CFBF7C6FE0546E7
:1052F0000E46E06BFBF7C1FE244A254BFBF7C0FED0
:105300002A463346FBF712FCFBF726FA7F21C90534
:105310006065884200DD6165616BE06A00F020FE37
:1053200020650546616D00F01BFE0146A06400F09B
:1053300017FE06462946084600F012FE314600F0E8
:1053400067FEFBF7C1FF00F0B7FBFBF705FAE0646F
:10535000FDF78CFAA16D401AFCF7D4F8A16C00F0AF
:10536000FFFDFBF7B1FF00220A4BFBF7DFFB636F8A
:10537000226FFBF7ABFB61672067FDF777FAA0654B
:105380000020FDF789F970BD20000020105839B4C5
:10539000C876EA3F40774B4110B504468C2209217C
:1053A00000F0E6FC01212046FFF72BFF0D4CA06228
:1053B00061684843A16840180B49FBF71DF9FBF7EA
:1053C0005CFE6166094A0A4B2066FBF759FE002223
:1053D000084BFBF7ABFBFBF7BFF9E062FDF710F9F9
:1053E000E06210BD2000002010270000BE9F1A2F91
:1053F000DD24EE3F00408F4010B504468C22092189
:1054000000F0B6FC01212046FFF7D6FE064C2070C6
:10541000FCF770F8FF21890500F0A2FD034900F0B8
:10542000F7FDA06310BD0000200000200000C8416F
:1054300010B500220821012000F038F96420FDF7A2
:105440002BF900220821022000F030F96420FDF73A
:1054500023F900220821032000F028F96420FDF739
:105460001BF900220821042000F020F96420FDF738
:1054700013F900220821052000F018F96420FDF737
:105480000BF900220821062000F010F96420FDF736
:1054900003F900220821072000F008F96420FDF735
:1054A000FBF808210022084600F000F910BD0000BA
:1054B000A0B0FDF70FFCFFF7ACF9FEF7D7FEFEF743
:1054C0001DFFFEF747FFFEF76BFFFEF78FFFFFF7AD
:1054D0001BF8FEF783FE0924E406102322464F49F9
:1054E0004F48FDF703F84D49FF230133224664314D
:1054F000012000F0C7F800F0A7F800F0B9F849A1C2
:105500006846FAF7FDFE6846FBF734F882B2444875
:105510000023DB4369468838FEF764FCFFF788FF09
:10552000FDF7A4F90122D1022046FDF799F93C4884
:10553000FFF7C0F900F016FA414C3948FFF7A6FE14
:105540000A20FDF7A9F83648FFF726FF0A20FDF7E5
:10555000A3F83348FFF772FE0A20FDF79DF83048A4
:10556000FFF74AFF0A20FDF797F82D48FFF7A8FE3E
:105570000A20FDF791F8E069FBF777FD0546204624
:105580000E4670300FC8FBF7AEFA2A46334600F0DD
:105590006DFC2CD2206F616FE16705460E46024616
:1055A0000B46A067FBF79FFA07460091A069FBF73F
:1055B0008BFE3A46009BFBF763FD0022214BFBF775
:1055C000B5FA074600916069FBF77EFE3A46009BFC
:1055D000FBF789FAFBF7C0F8606128463146FBF714
:1055E000BBF802460D4800215438FCF7FAFFFF20B3
:1055F0006169C005C14201D3002200E001220121FE
:105600000920C902C006FDF72BF900220D4B616F7E
:10561000206FFBF78BFA00F07DF88EE70401002085
:105620005402002053746172742041706C6963618C
:1056300074696F6E2056312E30343135200A0000E7
:105640002000002000408F4070B5084800250078F9
:10565000FF2800D10F250024601CC0B2294600F0AD
:10566000B1F8641C082CF7DB70BD000000000020BE
:1056700010B5034800210170092000F0A3F810BD07
:105680000000002070B5084C0546A2606160638090
:1056900000F0BEF807210B2000F094F8284600F037
:1056A000AFF8FFF7D1FF70BD0000002070B588B0E3
:1056B00015460C460646202214496846FAF766FD50
:1056C000082E14D86946B000114A401811460C390A
:1056D00009788038002D0ED08023002909D0FF29B9
:1056E00005D121461943C06FC0B200F06BF808B075
:1056F00070BD115DF6E7002904D0FF29F7D16106DE
:10570000490EF0E7115D4906490EECE7F06000082C
:105710000C0000207CB50022294BFBF7B1FCFBF705
:1057200029FC00246D460A21FAF770FF2955641CF4
:10573000082CF8DB6846017800220120FFF7B6FF4D
:105740006420FCF7A9FF6846417801220220FFF798
:10575000ADFF6420FCF7A0FF68468178002203209B
:10576000FFF7A4FF6420FCF797FF6846C17800228A
:105770000420FFF79BFF6420FCF78EFF6846017949
:1057800000220520FFF792FF6420FCF785FF6846A2
:10579000417900220620FFF789FF6420FCF77CFF97
:1057A0006846817900220720FFF780FF6420FCF71C
:1057B00073FF6846C17900220820FFF777FF7CBDA0
:1057C0000000244073B50D4C00226188A068FDF7ED
:1057D00047F80025ED432B46012269466068FDF736
:1057E0003FFF2B46012201A96068FDF739FF012226
:1057F0006188A068FDF734F87CBD0000000000203F
:1058000010B50F2803D801460A20FFF7DBFF10BDB3
:1058100010B501210C20FFF7D5FF10BD38B50C469F
:1058200005460021FCF759FEA106890E2846FFF720
:1058300028F80120FCF730FF00212846FFF721F867
:1058400001466846017000212846FFF71AF8014614
:10585000684641700088012144BA2846FCF73DFEA5
:10586000204638BDF8B50C4607460021FCF735FE4A
:10587000A106890E3846FFF704F80A20FCF70CFF52
:1058800000213846FEF7FDFF064600213846FEF7A8
:10589000F8FF054600213846FEF7F3FF04460121D4
:1058A0003846FCF71AFE3004290208432043F8BDAD
:1058B000F8B50C4607460021FCF70FFEA106890E3D
:1058C0003846FEF7DEFF0A20FCF7E6FE00213846E8
:1058D000FEF7D7FF064600213846FEF7D2FF054601
:1058E00000213846FEF7CDFF044601213846FCF77B
:1058F000F4FD3004290208432043F8BD70B50C467E
:1059000005460021FCF7E9FDA106890E2846FEF7B1
:10591000B8FF0120FCF7C0FE00212846FEF7B1FFCA
:1059200044B201212846FCF7D8FD204670BD1CB5C5
:10593000002301930123541C00938906E3B2890ECE
:1059400001AA00F0DDF80021084601AA04E0135C7A
:1059500009021943401C40B2A042F8DB4800000A8B
:105960001CBD000010B56420FCF796FE00210D4818
:10597000FCF722FEFBF7A8FC0B4A03C26420FCF7ED
:105980008BFE10210748FCF717FE084908606420C9
:10599000FCF782FE20210348FCF70EFE0449086054
:1059A00010BD0000B0000020900000203400002056
:1059B0003800002038B5402405460223224609213C
:1059C000009400F012FA0A20FCF766FE0222092178
:1059D0002846FFF7ACFF400602D50A20FCF75CFE24
:1059E0000223002209212846009400F0FEF938BD68
:1059F00070B5074C206801684025A943016001206B
:105A0000FCF74AFE206801682943016070BD000070
:105A10000401002070B51D4AAA231370002353709F
:105A200001239370D070080E1071080C5071080A91
:105A30009071D1711648174C1946535C5840082391
:105A4000C50702D04008604000E040085B1EF7D167
:105A5000491C89B20829F0D3010A11725072BB2087
:105A60009072012209251403ED0621462846FCF711
:105A7000F7FE0649642308460B22F838FEF7B2F910
:105A8000002221462846FCF7EBFE70BDC402002030
:105A9000FFFF000001A0000010B5FBF733FD044933
:105AA0000246886120210348FCF79BFD10BD0000E1
:105AB00020000020B0000020F8B506460C46FCF798
:105AC0000DF8051E0F4600D00120014349000B4888
:105AD0004908411AC90F0DD0002E01D0012100E064
